:100000005555AAAA000200000000000000000000F0
:10001000158300000000000000000000BC2CF14D22
:100020000009100005080000890200009F0200007E
:10003000B5020000CB020000E10200000000000059
:10004000000000000000000000000000ED220000A1
:10005000F122000000000000F7020000F32200007F
:10006000F5220000212100000D230000572100008F
:100070000F230000112300001F2300002D23000088
:10008000090300004B2300004D2300006B230000F8
:100090006D2300006F2300007123000000000000AA
:1000A0000000000000000000000000000000000050
:1000B0000000000000000000000000000000000040
:1000C0000000000000000000000000000000000030
:1000D0000000000000000000000000000000000020
:1000E0000002000000F002F800F05AF80AA090E8C0
:1000F000000C82448344AAF10107DA4501D100F0E3
:100100004FF8AFF2090EBAE80F0013F0010F18BF55
:10011000FB1A43F00103184750F2000070F2000090
:100120000A444FF0000C10F8013B13F0070408BF1D
:1001300010F8014B1D1108BF10F8015B641E05D0BB
:1001400010F8016B641E01F8016BF9D113F0080F70
:100150001EBF10F8014BAD1C0C1B09D16D1E58BF02
:1001600001F801CBFAD505E014F8016B01F8016B39
:100170006D1EF9D59142D6D37047000000230024AC
:1001800000250026103A28BF78C1FBD8520728BFA7
:1001900030C148BF0B6070471FB51FBD10B510BD03
:1001A000DFF80CD0FFF7F8FF02F0F9F90EF0F0FEDF
:1001B0000009100003B4FFF7F1FF03BC0EF0F0FEDE
:1001C0000A484FF0FF0101704FF0000080F31188E2
:1001D0004FF0000080F3098805484FF002010170DC
:1001E00062B604484FF080510160704722ED00E094
:1001F0000009100004ED00E002484FF0805101605A
:100200007047000004ED00E04FF0200080F31188FB
:10021000EFF3098098B112480068124909688842D2
:1002200017D0EFF309800E49096820E9F00F8860C4
:1002300000B50B48006800F0F2F85DF804EB0848E0
:1002400008490A68026000688168B1E8F00F81F32C
:1002500009884EF0040E4FF0000080F311887047BB
:100260000409100008091000EFF311804FF020017D
:1002700081F31188704700004FF0000080F311886F
:100280007047000062B6704772B6704740BA704758
:10029000C0BA7047401E0028FCDC704700BE7047A3
:1002A00040BA7047C0BA70471EF0040F0CBFEFF39E
:1002B0000880EFF309804FF0010101F07CBF1EF0D0
:1002C000040F0CBFEFF30880EFF309804FF0020139
:1002D00001F071BF1EF0040F0CBFEFF30880EFF3C5
:1002E00009804FF0030101F066BF1EF0040F0CBF40
:1002F000EFF30880EFF309804FF0040101F05BBFDA
:100300001EF0040F0CBFEFF30880EFF309804FF0ED
:10031000050101F050BF4FF0000000B502F0DBFD19
:100320005DF804EBFFF770BF1EF0040F0CBFEFF396
:100330000880EFF309804FF0000101F03CBF00009E
:10034000194910B5012008701849002008601849A3
:100350000860184908601849086000F0B9F900F011
:100360004BF900F063F8002010BD10B5114800F003
:100370002AF90F4908600D490968884207D00A48E0
:100380000078022803D1BDE81040FFF735BF10BD4B
:1003900010B5FFF7EAFF044902200870FFF710FFCD
:1003A0004FF0FF3010BD00000009100004091000DC
:1003B000080910000C0910001009100070B50D4656
:1003C0000446C1698068CC220EF0E5FCE169A068B2
:1003D000084440384FF08071C163216A8163002175
:1003E00041630163C1628162C0E908514FF00B3182
:1003F000C1614FF00A3181614FF0093141614FF025
:10040000083101614FF00731C1604FF00631816062
:100410004FF0053141604FF00431016070BD8269D9
:100420008168914201D802F056B9704710B54FF477
:10043000B4714F480EF0D9FC002010BD70B50546D0
:1004400000EBC5014A4800EB8104FFF70DFF0646AB
:10045000207828B13046FFF70FFF6FF0010070BD24
:100460000320207000206560206204F11C0000F071
:1004700083F83046FFF700FF002070BD2DE9F04102
:100480000F463B49002500EBC00001EB80042E46DF
:10049000FFF7EAFE8046206A3843206204F11C0020
:1004A000074600F090F80CE0216A026C114203D07C
:1004B00000F066F9012600E06D1C2946384600F080
:1004C00078F80028F0D1012E01D1FFF74EFF404609
:1004D000FFF7D2FE0020BDE8F08170B50D4624493B
:1004E00000EBC00001EB8004FFF7BEFE216AA943C8
:1004F0002162FFF7C1FE002070BD70B50C461C499B
:1005000000EBC00001EB800500202060FFF7ACFE8F
:10051000296A2160FFF7B0FE002070BD2DE9F0418F
:100520000D46134900EBC0001E46904601EB8004C7
:10053000FFF79AFE07460F4800680564216A2942C2
:1005400003D104F11C0100F02DF93846FFF794FEA9
:10055000FFF78AFE216A29403160B8F1010F02D10C
:10056000216AA9432162FFF787FE0020B3E700005C
:10057000500B10000409100000210160084670476C
:1005800030B50A6812B10B46C46B09E0002208605E
:10059000C0E903210BE000BF02F10C03D26812B1E5
:1005A000D56BA542F8DC1A68C0E903211860002069
:1005B00030BD0068002201E0C068521C8A4201D0B0
:1005C0000028F9D170470068704702690AB11168C4
:1005D00031B96FF00400704701F10C02C96839B1FC
:1005E0008142F9D1C9681160002101610846704754
:1005F0006FF003007047000010B54FF4C871324827
:100600000EF0F3FB002010BD2DE9F04188460546B1
:100610002D4900EB8500174601EBC004FFF724FECF
:100620000646207830B13046FFF726FE6FF0010015
:10063000BDE8F08102202070E7611422414604F1F8
:10064000080065600EF062FB0020206204F12400C7
:10065000FFF792FF3046FFF70FFE0020E8E770B586
:10066000194900EB800001EBC004FFF7FDFD0546D2
:10067000D4E90701814205DB144804F12401006834
:1006800000F090F8206A401C20622846FFF7F4FD35
:10069000002070BD70B50C4900EB800001EBC00478
:1006A000FFF7E2FD0546206A08B1401E206204F112
:1006B0002400FFF788FF10B1606A00F011F82846A7
:1006C000FFF7DAFD002070BDB80C1000040910001F
:1006D00010B54FF42A7140480EF087FB002010BD82
:1006E00010B5044690F8380002280BD02046FFF7DA
:1006F0006CFF022084F8380038492046FFF740FF9D
:10070000FFF733FE002010BD2DE9F05F8B46064653
:10071000314900EB06109046DDE90AA911F82020C6
:100720001D461AB16FF00100BDE8F09F01EB800497
:10073000FFF79AFD074601202070C4E90165C4E96E
:100740000585C4E907A91422594604F124000EF0D6
:10075000DDFA002084F8370084F838006169E06031
:100760002061C4E90F1020460C99FFF727FEA06016
:100770002046FFF7B5FF3846FFF77EFD0020D3E7A0
:1007800010B5044690F83800022809D02046FFF73B
:100790001CFF022084F8380010492046FFF7F0FEC5
:1007A000002010BD70B5044690F838000D460228B0
:1007B0000BD12046FFF709FF032084F838002946B3
:1007C0002046FFF7DDFEFFF7D0FD002070BD044896
:1007D0000068406870470000480E10000C091000C7
:1007E00004091000F0B58446002004460C4F14E0C4
:1007F0005CF824600323DD0046FA05F280EA02601B
:100800000825002802DA87EA400000E040006D1E5B
:10081000002DF6DC5B1EEED5641C8C42E8DBF0BDDF
:100820001B0000800D4880470D480047FEE7FEE7AB
:10083000FEE7FEE7FEE7FEE7FEE7FEE7FEE7FEE790
:10084000FEE7FEE7FEE7FEE7FEE7FEE7FEE7FEE780
:10085000FEE7FEE7FEE7FEE7FEE7FEE773080000BF
:10086000C50000004FF0005191F8210010F00C007D
:1008700009D0042809D0082809D07820401E01F8A2
:10088000280F087070470F20F8E71E20F6E73C207D
:10089000F4E7704707493F200870E3E70549332034
:1008A0000870DFE7034800783F2801D00020704738
:1008B000012070472100002010B5084904200124C0
:1008C0000023C1F8FC00064A14601360054BA02207
:1008D0001A70C1F8FC01C86710BD000084E000E098
:1008E000D403002202E400E010B5042000F002F975
:1008F000052000F0FFF8062000F0FCF8072000F0CB
:10090000F9F8082000F0F6F88C49002008608B49BF
:10091000203108608A490880884A121D1060874A81
:10092000243210608880854A08321060834A283259
:1009300010600881814A0C321060804A2C321060AD
:1009400088817E4A103210607C4A30321060088202
:100950007C49086048607C480078552805D07A4971
:100960001320491C08700EF0ECF80621042000F05A
:10097000D9F80621052000F0D5F80621084600F038
:10098000D1F80621072000F0CDF80421082000F05E
:10099000C9F8042000F0BAF8052000F0B7F80620E6
:1009A00000F0B4F8072000F0B1F8082000F0AEF82D
:1009B000042000F093F8052000F090F8062000F0E5
:1009C0008DF8072000F08AF8BDE81040082000F0FC
:1009D00085B800EB80004FF6FF7101EA40015748EF
:1009E00000220260C206118601210160704753494E
:1009F00000200860704700EB80004FF6FF7101EAAD
:100A000040014E480022001D02604FF000529186C6
:100A100001210160704749490020091D08607047A5
:100A200000EB80004FF6FF7101EA400143480022CD
:100A3000083002604FF000521187012101607047B9
:100A40003E49002008310860704700EB80004FF6F7
:100A5000FF7101EA4001394800220C3002604FF07A
:100A600000529187012101607047344900200C3108
:100A7000086070473449491C097841430A20B1FB9A
:100A8000F0F13248491E80F860104421817611212E
:100A9000C176042280F8602048228276C1767047B1
:100AA0002A48002180F86010482181761121C17602
:100AB000704700EB80004FF6FF7101EA40011F48CC
:100AC0000022103002601E4A0E32118001210160A6
:100AD00070471A49002010310860704700F01F026B
:100AE0000121914040094FF0E02202EB8000C0F864
:100AF0000011704700F01F020121914040094FF0A2
:100B0000E02202EB8000C0F88011704700F01F0265
:100B10000121914040094FF0E02202EB8000C0F833
:100B2000801270474907090E002803DA00F00F0011
:100B3000074A00E0074A815470470000240500225C
:100B40003200002084000022F20710000010002074
:100B500014ED00E000E400E05948012101600021AB
:100B60000160704757480121016000210160704712
:100B700010B5002000F08BF8534800220260FFF708
:100B8000F1FFFFF7E9FF514802605149A0200870CA
:100B9000002000F088F8BDE81040002000F06BB89D
:100BA0004A4801211C38016000210160704710B5DE
:100BB0000446002000F06BF84348414904600120DE
:100BC0000860002000F06FF8BDE81040002000F041
:100BD00052B830B53C4889B00468002C11D02021AF
:100BE00068460EF002F93B4800783A4B00216A460D
:100BF0005B1C02E0CD5C5554491C8142FADB114676
:100C0000A04709B030BD2E4901201C39086070474B
:100C10003048203000782F4921310978401A00F0FF
:100C20003F0070472C4902780A7042784A708278F7
:100C30008A70C278CA7002790A7142794A718279DF
:100C40008A71C079C87170472448006841788278F9
:100C50004FF00050437A0374214B1B78437443894F
:100C60001B0A83744389C37401754275C179817508
:100C7000017AC175704700F01F02012191404009BF
:100C80004FF0E02202EB8000C0F80011704700F046
:100C90001F020121914040094FF0E02202EB800049
:100CA000C0F88011704700F01F02012191404009F7
:100CB0004FF0E02202EB8000C0F880127047000085
:100CC0005C840022A0000022140910007C04002291
:100CD00000E400E0000400200002002024091000CD
:100CE0006C09100010B5092000F053F80A2000F03C
:100CF00050F8092000F059F80A2000F056F80521B4
:100D0000092000F05EF805210A2000F05AF8324868
:100D10007F21417081700171002100F848192F492D
:100D20000A684FF0010192F8C830DC070AD09C072E
:100D300008D590F84A40C3F3820301FA03F39C43B9
:100D400080F84A4092F81E31DC0721D0C3F34203F9
:100D5000012B03D0224B4FF480641C604830837811
:100D600002F58F721478C4F3420401FA04F4A34329
:100D7000837003791478C4F3420401FA04F4234322
:100D8000037103781278C2F3420291400B4303705F
:100D900010BD00F01F020121914040094FF0E022F8
:100DA00002EB8000C0F88011704700F01F020121A3
:100DB000914040094FF0E02202EB8000C0F8801221
:100DC00070474907090E002803DA00F00F00054AB2
:100DD00000E0054A815470474800002024091000B3
:100DE00000E100E014ED00E000E400E07047C948D5
:100DF0004FF48051018000BF00BF00BF00BF00BFA3
:100E000000BF00BF00BF00BF00BF4FF4C051018052
:100E100000BF00BF00BF00BF00BF4FF440610180B2
:100E2000704710B5BB4C0720A41E607000202070D6
:100E300044F2C000608000BF00BF00BF4CF2C000A1
:100E4000608000BF00BF00BF4CF2E000608009205E
:100E5000FFF720FA44F2E000608000BF00BF00BF4F
:100E60004FF48040608010BDF0B500252E464FF055
:100E70000054E02717E000BF883401F03F016070A4
:100E80002170678000BF00BF00BFD4F808C043F8DE
:100E900025C06680883C00BF6D1C521E491C3F293E
:100EA00001D9401CC0B2002AE6DCF0BD70B5994CF7
:100EB0002126268000BF00BF00BF00BF00BF40F05A
:100EC0002105258000BF00BF00BF00BF00BF44F266
:100ED0002101084320800420FFF7DCF9258000BFB2
:100EE00000BF00BF00BF00BF268000BF00BF00BF23
:100EF00000BF00BF0020208000BF00BF00BF00BFB8
:100F000000BF70BD70B50446824800250580824E42
:100F10000120306000F0EBF8FFF783FF00F0D7F816
:100F20005C20FFF7C3FF2346012202210720FFF7C1
:100F30009BFF231D012203210620FFF795FF04F1EB
:100F40000803012204210520FFF78EFF04F10C03A2
:100F5000012203210720FFF787FF04F1100301227C
:100F600004210720FFF780FF00F0B1F8FFF759FFD9
:100F7000FFF73DFF356070BD70B50446654800253C
:100F80000580654E0120306000F0B1F8FFF749FFA1
:100F900000F09DF85C20FFF789FF2346012208211D
:100FA0000020FFF761FF231D012209210020FFF728
:100FB0005BFF04F1080301220A210020FFF754FF20
:100FC00004F10C0301220B210020FFF74DFF04F177
:100FD000100301220C210020FFF746FF04F1140347
:100FE00001220D210020FFF73FFF00F070F8FFF70E
:100FF00018FFFFF7FCFE356070BD2DE9F043994600
:10100000079B002603B18026434C0023803CC0B2DE
:101010001F4665044FF001081DE000BF85F88900F8
:1010200001F03F0C4CEA060C85F888C059F823C043
:10103000C5F88CC0C4F8B080C4F8B070491CC9B2FF
:10104000402902D3401CC0B20021D4F8C0C0BCF17A
:10105000000FFAD15B1C9342E0DBBDE8F0834FF058
:10106000005282F88900002319B1802082F888009C
:1010700001E082F88830284801218038C0F8AC109F
:10108000C0F8AC30D0F8C0100029FBD1704738B59B
:101090000C4605460021F820FFF7E1FF002001463D
:1010A00000902B462246F820FFF7A7FF38BD38B541
:1010B0000C46054601210020FFF7D1FF0120002149
:1010C00000902B4622460846FFF797FF38BD10B523
:1010D000104C4FF4804020800420FFF7DBF8002004
:1010E000208000BF00BF00BF00BF00BF10BD10B513
:1010F000084C4FF4C050208000BF00BF00BF00BFAD
:1011000000BF4FF4805020803520FFF7C3F8002047
:10111000208010BD8A00002080100022F8B5FC4C11
:101120000026354626700120A66000F06DFC0E20DA
:1011300000F06AFC0D2000F067FC0C2000F064FC5D
:10114000032000F061FC012000F06AFC0E2000F09A
:1011500067FC0D2000F064FC0C2000F061FC032013
:1011600000F05EFC00F007FE6A460221E94800F04C
:10117000CFFFE9499DF8010008709DF80000432861
:1011800000D003260521012000F056FC05210E2089
:1011900000F052FC05210D2000F04EFC05210C2032
:1011A00000F04AFC0621032000F046FC012000F07C
:1011B0001FFC0E2000F01CFC0D2000F019FC032089
:1011C00000F016FCA57065703046F8BD70B5D04BC8
:1011D000D888C0F38001C0F34016C0F300247140EA
:1011E000C0F3C0226140C0F38035514069404008DF
:1011F00040EAC130D88070BD38B50D460090144625
:101200000421684601F0CAFAC4498978C90602D5A2
:10121000062D00D1401C0099A16484F8460038BD19
:10122000106570472DE9F047BD4D0646BB4C286858
:1012300090F83404C00718D0608840F080006080C7
:10124000FFF7C4FF296800F00700084490F8350450
:1012500084F83500FFF7BAFF2968C0F3021008448C
:1012600090F83504800084F83400002084F83E00B3
:1012700028684FF002084FF0E90990F845176174AB
:10128000A8494FF0010AC1F30E07042E06D0032E21
:101290001FD0022E41D0052E5CD083E09F4A3146FC
:1012A000A06AFFF7A9FFE06A2065A4F84070A07863
:1012B00080060028286890F8590703DA20F0060015
:1012C00040F0040084F8440084F8458084F842909B
:1012D00068E0924A3146A06AFFF78EFFE06A206517
:1012E0008E480421283001F059FA8E4901EB800024
:1012F000C0F30E00A4F84000A078800600282868FB
:1013000090F8590703DA20F0060040F0040084F852
:10131000440084F84580ED2019E0804A3146A06AF7
:10132000FFF76AFFE06A2065A4F84070A0788006A5
:101330000028286890F8590703DA20F0060040F0EA
:10134000040084F84400042084F84500E52084F873
:10135000420027E0A178890624D500F2C93028345C
:101360000178A173C17821744178E1748078207587
:1013700084F816A0694A31462068FFF73DFF6948A6
:10138000DC30C0F30E002083286890F8590720F065
:10139000060040F00200207784F81D8084F81A903F
:1013A000A4F12804286890F80A17C90708D05E49F4
:1013B000C1F800A014F8430F40F00300207008E0CB
:1013C000A17890F86C07890701D520F0030084F814
:1013D00043004F484670BDE8F047504800F097BDC5
:1013E0002DE9F0474D4C05464FF0000ADFF83091EB
:1013F00084F83EA0E12084F84200D9F8002021467C
:10140000434E92F84507607492F80A07CF7C5FEA72
:10141000C07846484988C0F30E0C4548CBB241F02D
:10142000010101D0012D04D0072D0AD0062D3FD097
:1014300028E0F77033710A23E3746180A4F840C098
:101440000DE0F77033716180517D137D491C594364
:10145000364B03EB4101C1F30E01A4F8401092F8A2
:101460005317007801F0F00100F00F000143E1761E
:1014700092F855076077294A29460120FFF7BCFEFC
:10148000E06820656188C80705D094F8420040F004
:10149000020084F84200D9F8000090F80A27D20729
:1014A00028D0062D16D0082D14D0012D17D029E0F4
:1014B000A4F840C092F85317007801F0F00100F052
:1014C0000F000143E17692F855076077134A2946E9
:1014D000A068D3E714F8430F20F0030008E0124996
:1014E000C1F800A014F8430F20F0030000F102003F
:1014F000207007E090F86C07890701D520F0030001
:1015000084F843007570BDE8F047044800F0B7BCAC
:1015100018091000041000206C091000F0101000D1
:1015200024091000C0850120280A00220080012023
:10153000F607100006280ED008280CD001280AD083
:10154000072808D0042805D0032803D0052801D097
:10155000022801D166E643E770472DE9F843FF4DC5
:101560008146012901D1002068716C79FD4F641C0E
:10157000FB4EA7F128080FE0306890F80A07C00773
:1015800002D057F8242001E058F824206946484644
:101590009047012805D0641C092CEDD90020BDE836
:1015A000F8836C719DF80000F9E770B50188002997
:1015B00032D001465422EC4801F0DCFBE84D2868AB
:1015C00090F80A07C0070AD0E748018811F0760FA3
:1015D00005D08278920702D441F080010180DF4E6D
:1015E0007078002818D10121DF48FFF7B6FF04000A
:1015F00012D0286890F8181149070ED590F84307C3
:1016000080070AD400F078FD0220B07000F078FD69
:10161000192000F027FC747070BD00203070204647
:10162000BDE8704086E7002070478268120006D04F
:101630000088C00503D507200870012070470020EE
:1016400070478268120006D00078C00703D00620D9
:1016500008700120704700207047026A120006D00F
:101660000078000703D5082008700120704700208B
:1016700070478268120005D00078000602D501206C
:101680000870704700207047826A120008D0C26A52
:1016900032B10078800603D502200870012070471F
:1016A00000207047826A120006D00078C00603D579
:1016B000052008700120704700207047826A1200E0
:1016C00006D00078800703D50420087001207047F9
:1016D00000207047C26A32B10078400703D503206A
:1016E000087001207047002070470020087001201A
:1016F00070472DE9F0419C480421283001F04EF854
:101700000446994804212C3001F048F8934F0546CF
:10171000DFF854827878954E042801D002280CD145
:1017200098F80200800602D5A200904902E062000B
:1017300006EB44018E4801F01DFB7878032801D0A8
:10174000022811D198F80200800603D5AA0006EB02
:10175000840104E005EB44006A0006EB4001BDE8AB
:10176000F041844801F006BBBDE8F0811FB500F0F0
:10177000CFFA01208DF800007F4801907B4802904D
:10178000DC30039078484168684688471FBD2DE9E2
:10179000F05FDFF8CC91754D0024D9F800004FF0D0
:1017A000010A90F80017C9072CD06F4991F83A60E8
:1017B00006B9012691F83910DFF8A08191FBF6F106
:1017C0000FB298F80110042902D0032903D00BE0CE
:1017D000407D440021E0644840240421283000F08A
:1017E000DDFF624901EB800598F8010002280AD06C
:1017F00005280BD0042810D003280ED002280CD0C6
:1018000005280AD062E06C24584D06E0D9F80000A3
:10181000564D2C2490F80177DC354046D8F80880E6
:10182000B84553DC8346B8F1000F04D14FF4DC71A6
:1018300052480DF0DAFA0021504807E050F8212014
:1018400035F911301A4440F82120491CA142F5DB3A
:1018500008F101015A46CBF80810B94230DB0021EB
:1018600091605178042903D0032901D0022914D1B1
:10187000D9F80010DFF808C1D1F8043700210AE0D8
:1018800030F821707743FF1A25F8117050F8217055
:101890004CF82170491CA142F2DB9BF8011005298C
:1018A00014D10021374A08E030F8213025F81130F2
:1018B00050F8213042F82130491CA142F4DB05E008
:1018C0009BF80100FFF736FE4FF0000A5046BDE8D6
:1018D000F09F2DE9FF41FFF70CFF234DA87840064C
:1018E00003D4FFF754FF002816D01D4F1B4C386857
:1018F00090F80A07C00708D06078012805D1E07881
:10190000E8742079688007F0C0FA00211648FFF7D4
:1019100024FE18B1FFF70EFEBDE8FF8100266670B9
:10192000386890F80A17C90701D017490E60174A9E
:10193000A421117390F81801400702D5A67000F099
:10194000D7FB2078012826D08DF800600A48019046
:1019500006480290DC300390684619E01809100030
:1019600024091000B4EF0000F0101000C085012021
:10197000BC9101201892012000800120F8860120EE
:10198000B0880120688A0120280A00220010002067
:1019900069688847C0E702208DF80000D6E72C4828
:1019A00010B501684FF0000291F81801430729486B
:1019B0000AD591F84317890706D48178012907D001
:1019C00002290ED0032912D18270BDE81040CDE665
:1019D0000221817000F094FBBDE81040322000F03D
:1019E00041BA032181704078BDE81040A2E510BDE6
:1019F00000F01F020121914040094FF0E02202EB6C
:101A00008000C0F80011704700F01F0201219140D2
:101A100040094FF0E02202EB8000C0F880117047CF
:101A200000F01F020121914040094FF0E02202EB3B
:101A30008000C0F8801270474907090E002803DAB9
:101A400000F00F00044A00E0044A8154704700008F
:101A5000240910001809100014ED00E000E400E073
:101A6000F64801680029FCD17047F0B5272600220E
:101A7000F24DF3484FF480115C270C465FF00003F1
:101A800003EB000E11F803C05B1C8EF860C00C2B3A
:101A9000F6DB2B68002BFCD18276C77604F10C01B3
:101AA00003EB000E11F803C05B1C8EF860C00C2B1A
:101AB000F6DB29680029FCD1511C8176C776921C7F
:101AC00004F12D01B242D8DBF0BD2DE9F04792467A
:101AD000089E5B1EC6F108010022D94C01F0FF0CE4
:101AE0001546002189469A420BDA00EB0208875C12
:101AF00098F8018027FA06F708FA0CF847EA080771
:101B000003E007D1875C27FA06F701EB040888F8A1
:101B1000607003E001EB040888F8609001F10101B6
:101B200002F101020C29DEDBC4490F68002FFCD151
:101B30000AEB0501A1765C21E1766D1C022DD0DB5C
:101B4000BDE8F08718B5002411235C222146BD486A
:101B50000094FFF7BAFFBB481823622200211E3011
:101B60000094FFF7B2FF18BD2DE9F0470024DFF81D
:101B7000CC82B3498246254626464FF05C090020B8
:101B80009C4206DA00EB010C1AF804708CF86070C5
:101B900002E0471887F86060641C401C0C28EFDBEB
:101BA000D8F800000028FBD15019887681F81B90E6
:101BB0006D1C032DE3DBC3E7A24800B516235E22AC
:101BC00000216438FFF7D0FF9E48202364220021C3
:101BD0003C385DF804EBC7E770B50023984C05E08E
:101BE000CD5C1E195B1C86F860505BB29342F7DB3C
:101BF00092490B68002BFCD1A07642F01000E076F1
:101C000070BD30B5904C07220220216801F242716C
:101C1000FFF7E2FF2168022201F24A710920FFF773
:101C2000DBFF2168012201F24C710B20FFF7D4FF8A
:101C30002168062201F24D710C20FFF7CDFF81498A
:101C400020688A31814D90F85307097800F0F00040
:101C500001F00F0108432870012229461220FFF7E6
:101C6000BBFF2168072201F254711320FFF7B4FF74
:101C7000744801228930007800F00F01206890F844
:101C80005B0761F31F10287029461A20FFF7A4FF95
:101C90002168042201F25C711B20FFF79DFF694857
:101CA00002228D3029460078287066488B300078F3
:101CB00068701F20FFF790FF2168062201F2627111
:101CC0002120FFF789FF5F4802228E3029460078E5
:101CD00028705C488C30007868702720FFF77CFF04
:101CE0002168022201F26A712920FFF775FF21683D
:101CF000072201F26C713D20FFF76EFF206890F81B
:101D0000C01753480170332141740B21817430BDD9
:101D10005048002202604F481C3802604E48026161
:101D200001210161826081600260016002604349BB
:101D3000A0F574700B68002BFCD141490B7B43F07C
:101D400020030B730B7B23F040030B730B7B23F0FF
:101D500080030B730B7B23F020030B73C0F8D82395
:101D6000C0F8E0233D4802707047344818300168DD
:101D70000029FCD1704730B5374800247430046026
:101D80003548803004603448C4600121C160C460BB
:101D90000460016004602E4D2020AD1D2870687025
:101DA0002749593D0873A420087324481830016856
:101DB0000029FCD1FFF7ACFFFFF723FFFFF7FCFE84
:101DC000FFF7C0FEFFF751FE25480460244820308D
:101DD0000460AC8530BD38B50546194C806C009068
:101DE0006073010AA173010CE173000E20740422D8
:101DF00069462B20FFF7F0FE012205F146012F2056
:101E0000FFF7EAFE95F84600A074286D0090E07494
:101E1000010A2175010C6175000EA0750422694646
:101E20003520FFF7D9FE0098800F84F8400007495D
:101E3000012208703920FFF7CFFE38BD040B0022C5
:101E4000001000206C07100024091000441110003D
:101E5000530000201C0C0022D0030022190910009E
:101E600020050022C94900220A600A069085012047
:101E700008607047C64801680129FCD1704770B5F9
:101E80000446FFF7A8FFC348B4F840100180217C46
:101E900000F8011C94F842104173BF4DA07C85F8F6
:101EA0003600042204F111010520FFF795FEBB4E18
:101EB00002220920316801F24A71FFF78DFE0222E9
:101EC00004F116010D20FFF787FE022204F118012C
:101ED0000F20FFF781FE3068052204F11A0190F807
:101EE000540720771120FFF777FE012204F1430108
:101EF0003D20FFF771FEA64801680129FCD194F846
:101F000042002873BDE8704041F28830AAE77CB5F2
:101F10000446FFF760FF9F48B4F84010018094F832
:101F2000371000F8011C94F8421041739B4E316841
:101F300091F80A07C0076BD0B1F80D57B1F87007D8
:101F4000A178090607D594F83510084494F83410A0
:101F500080B229448DB28DF80400000A8DF8050086
:101F6000022201A94120FFF737FE280A8DF8005010
:101F70008DF80100022269460920FFF72DFE02229A
:101F800004F130011B20FFF727FE022204F1320189
:101F90002320FFF721FE012204F136010720FFF77D
:101FA0001BFE012204F13B010820FFF715FE012270
:101FB00004F13C012120FFF70FFE012204F13D0155
:101FC0002920FFF709FE012204F144011820FFF740
:101FD00003FE012204F145011920FFF7FDFD3068E1
:101FE0006F49012290F8540720F0F0000870132088
:101FF000FFF7F2FD94F83E00674DC0070CD0306843
:1020000000F2C67190F8C60785F8360001220AE092
:10201000022201F24A71AFE794F8380085F83600E1
:10202000012204F138010620FFF7D6FD012204F158
:1020300043013D20FFF7D0FD554801680129FCD13F
:1020400094F842002873BDE87C4041F2883009E7EB
:102050005249544B0A6892F84D2702700A68B2F848
:102060005027428009681B7801F2547103F00F0376
:1020700011F8012C02F0F0021A4302714A89C28061
:102080004A8A0281CA7B8272CA7DC2724978017310
:10209000704710B50446014601220C20FFF79CFD55
:1020A0000222A11C0F20FFF797FD0122211D122003
:1020B000FFF792FD0222A11D1D20FFF78DFD0222D8
:1020C00004F108012520FFF787FD012204F10A0130
:1020D0002220FFF781FD012204F10B012A20FFF7E6
:1020E0007BFD04F10C010122BDE81040142073E5D2
:1020F0002949042008737047274920200873704736
:102100002549C020087370472049002008607047A7
:1021100070B51F4C1C342368002BFCD11D4603E016
:10212000C6185B1C86F880508B42F9D32368002BBD
:10213000FCD102E0C45CD4545B1C8B42FAD370BD6A
:1021400010B500F0E3FE1149002008601648007841
:1021500000280FD00E48001D01680029FCD10E4850
:10216000C078400602D5114901200870BDE8104032
:10217000FFF7AFBB10BD10B500F0C8FE034900204B
:102180000860BDE81040FFF70ABC000020050022EF
:10219000000B002254000020001000202409100031
:1021A00044111000F607100019091000180910005A
:1021B000FEF78FFCFEE70446012006F077FF0021C2
:1021C0000F20226806F087FF01210F20626806F0C9
:1021D00082FF02210F20A26806F07DFF03210F205D
:1021E000E26806F078FF0C210F20226906F073FFE9
:1021F0000E210F20626906F06EFF0F210846A269CA
:1022000006F069FF20210F20E26906F064FF3E48D6
:10221000026821210F2006F05EFF3B48103802685B
:1022200022210F2006F057FF37480C38026823217F
:102230000F2006F050FF34480838026824210F2090
:1022400006F049FF3048001D026825210F2006F0E6
:1022500042FF2D483438026826210F2006F03BFF4C
:1022600029481438026827210F2006F034FFFEF7B2
:10227000AEFA024630210F2006F02DFFFEF729FCB2
:10228000FEE710B5012805D0022805D0032809D0A3
:10229000032102E0012100E00221BDE810400320FB
:1022A00006F004BF0021032006F000FFFEF711FC3A
:1022B000FEE710B504460146042006F0F7FE012CA7
:1022C00002D1FEF706FCFEE710BD0146082006F02D
:1022D000EDBE0146062006F0E9BE10B504460146F3
:1022E000072006F0E3FE34B1012C07D0022C08D100
:1022F000FEF7EFFBFEE7FEF7ECFBFEE7FEF7E9FB80
:10230000FEE710BD0220E8E738ED00E000F0FEBD7A
:1023100070477047254810B5016821F0040101603D
:1023200000F0F4FDBDE81040FEF753BC7047704765
:1023300010B500F0EBFDBDE8104006F08DBD10B506
:1023400000F0E4FDBDE8104007F004B910B500F05E
:10235000DDFD1748006890F82901800703D5BDE826
:10236000104006F087BD10BD7047704710B500F0F3
:10237000CDFD10480078012803D0BDE8104006F0DC
:1023800089BDBDE8104001F034BB7047704770470D
:10239000704770477047704770477047704700F04C
:1023A000B5BD00F0B3BD70477047000010ED00E010
:1023B000240910007409100010B5422189480CF05E
:1023C000F2FC88488849894A018042808849818096
:1023D000884BC380884C0481884C4481884C84811C
:1023E000884CC481884C0482884C4482884C848206
:1023F000884CC482884C0483C3874287818787497D
:10240000A0F8401086480168844801F24E710A889D
:102410004280CA89C280C98A018110BDF0B585B0E9
:10242000FF22142168460CF0B6FC6846FEF76AFDF0
:10243000039803250127072645F2AA54A04202D09B
:102440000498A0423BD1DDE90001884206D0029900
:10245000884203D00198884208D100900498A04295
:1024600010D10098000E012805D007E05FF00000B1
:10247000FFF72FFF0FE00098C0F301370098C0F37B
:10248000032602E00120FFF724FF0398A04214D1A5
:10249000009800F00705634907F0030040EA0610C2
:1024A00081F86000012088761120C8765E480178A6
:1024B00065F30201017005B0F0BD0220D8E70120EC
:1024C000FFF707FFF9E770B5FEF7E4F9FEF750FBF9
:1024D000534D28680078A52802D00120FFF7E9FEB7
:1024E0005248006810B10020FFF7E3FE28684FF063
:1024F00000064FF0010490F829118A074FF00851A7
:1025000004D5C1F89863C1F8804301E0C1F898434D
:1025100090F82811464A01F00101116090F8281145
:10252000121DC1F34001116042490C60091F0C608B
:10253000091F0C6090F8C800C1070BD0810709D5AE
:10254000C0F38200012805D137483130017821F0ED
:1025500007010170FEF74AFCFEF7C6F9FEF7DEFD43
:10256000032801D1FFF78DFEFEF76EFBFEF7A4F9FD
:10257000FEF7B8FB2B48802180F86010042181769B
:102580001121C176FFF74AFF286890F829018107D9
:10259000294801D5046000E00660046070BD4FF476
:1025A000007010B501054881FFF78DFFFFF704FFAC
:1025B00022493F2008602249002008602248214922
:1025C000016001F2A46021490860214800F099FAF5
:1025D000FDF75AFE00F03EF8FDF754FEFDF7D8FE79
:1025E000012010BD0000012000800120A69F0120D5
:1025F00066A5012042000120C0850120CE200120D7
:10260000FC200120402101206E210120062601200E
:1026100034260120021D0120301D0120941F1000CE
:10262000240910000010002020000020C810002203
:1026300088040022280A00227C0400223C21012078
:1026400068091000541110004C09100050091000C6
:102650009C1E10007FB5FDF773FE204D002400BFC7
:1026600005EB441000F11002017F4CCACDE9026174
:10267000CDE900230FC8FEF747F810B10120FFF79E
:102680002CFE641C072CEBDB144D002415F1E00537
:1026900004EB440005EB8001091D55F8200006C934
:1026A000FDF7B2FF10B10120FFF717FE641C072CE5
:1026B000EEDB0B4D002400BF05EBC400416855F86C
:1026C0003400FDF7BBFE10B10120FFF706FE641CCD
:1026D000062CF1DB7FBD4068FFF714BEDCEF000085
:1026E00010F100002DE9F0479246012547F6F872F7
:1026F00056429946AC460024089F16E030F8143044
:1027000031F81480A8EB03031BB29A4200DD1A468D
:102710009E4200DA1E46002B02DA4FF0000502E06E
:1027200001DD4FF0000C04F10104BC42E6DB55EA88
:102730000C0306D0012D01D02DB108E0BCF1010F32
:1027400005D1002203E0BCF1010F00D13246002583
:102750002C462B4611E000BF30F8136031F813C04F
:102760001644ACEB060636B24E4505DAC9F1000C4C
:10277000664501DD3544641C5B1CBB42ECDB95FB0C
:10278000F4F10A44002105E030F8113013442AF82E
:102790001130491CB942F7DBBDE8F08770B503463C
:1027A00000200246FC4C09E09D5C521C05F00F061F
:1027B00004EB1515A65D2D78304428448A42F3DBDE
:1027C00070BD884200D308467047884200D808464A
:1027D0007047884200D30846904200D310467047A5
:1027E0002DE9F047D0F810C00568046A85FB0C128B
:1027F000A1FB041242694368914683FB026282692D
:10280000E246A6FB02677618D0E9021781FB07C8EB
:10281000C069ACFB00C81CEB060682FB0A2CA2FBBD
:10282000011280FB0902A0FB0502401884FB07127D
:10283000A1FB03120818301A4FEAE071ACE72DE94A
:10284000F04389B0044600680090606801902069F8
:1028500002906068039020690490A0690590206947
:102860000690A0690790E06908900D466846FFF75A
:10287000B7FF8046A0680190E06804906069079007
:1028800089466846FFF7ACFF064660680190A0687D
:10289000029020690490E0680590A0690790606943
:1028A00008900F466846FFF79BFFC5E90401C5E99C
:1028B0000267C5E9008909B0BDE8F0832DE9FF4F43
:1028C0004FF0000A89B09B465746D146D04656463F
:1028D00055465446202168460CF087FA0B9810E0C4
:1028E0000999824431F9102000FB00F102FB0166D6
:1028F0008844414302FB009901FB004417440D4406
:10290000401C5845ECDD0B99ABEB0100401CCDE9B8
:10291000000ACDE90654CDE90486CDE9027968467E
:102920000A99FFF78CFF0DB0BDE8F08F9B48006857
:10293000017B427B41EA0221827BC07B41EA02416A
:1029400041EA00604000704794480068017942798C
:1029500041EA02218279C07941EA024141EA0060FC
:10296000704700B5FFF7E2FF4008400000BDF8B532
:102970000E460446FFF7F5FF0090FFF7D7FF054628
:1029800004216846FFF70AFF04EB40070024009982
:10299000204623464FF0010C0CFA03F20A4207D0FE
:1029A0002A4204D037F8102026F81420641C401C5A
:1029B0005B1C172BF0DBF8BDC6E7FCB50E460746DF
:1029C000FFF7CFFF0190FFF7BFFF0090FFF7BCFFBD
:1029D0000546042101A8FFF7E1FE044604216846EC
:1029E000FFF7DCFE00EB440007EB400700200099F6
:1029F000044603464FF0010C0CFA03F20A4207D0DA
:102A00002A4204D037F8142026F81020401C641CF9
:102A10005B1C202BF0DBFCBD00B5FFF787FF40F00F
:102A2000010000BD90E75E4A520102EB810101F115
:102A3000085108607047C0EB001001EB8000801067
:102A400001EB41014900182291FBF2F300EB400039
:102A500000F5801002FB1311006820F07F40C84091
:102A600000F03F007047C0EB001001EB80008010C9
:102A700010B501EB41014900182391FBF3F403FB6E
:102A8000141300EB400000F580103F2401689C40C7
:102A9000A1439A400A430270110A4170110C8170DF
:102AA00010BD821002EB4202114400EB40004000D6
:102AB000182290FBF2F301F5801102FB1302086863
:102AC00020F07F40D04000F03F007047831003EBC0
:102AD00043031A4410B500EB40004000182390FB5C
:102AE000F3F403FB140302F580123F2410689C40AA
:102AF000A043994001431170080A5070080C90706F
:102B000010BD2DE9F14F5C2100980CF06EF9FFF734
:102B100083FF4FEA5008FFF717FF4FF0000C814684
:102B200066464FF0010A00BF0AFA06F111EA090FE2
:102B30001ED00024012725460AFA0CFB0AFA05F0EC
:102B400010EA080F0FD031462846FFF774FFA04265
:102B500007D00099009A51F8271041EA0B0142F87A
:102B6000271004467F1C6D1C272DE7DB0CF1010CA0
:102B7000761C202ED8DBBDE8F88F2DE9F04F834678
:102B8000064800242246D0F800A001219AF81450EB
:102B9000A5F1010629E0000040F100002409100021
:102BA0003C21012003200123DFF844E403FA01F96A
:102BB0009AF8157016E000BF5EF820C01CEA090FF5
:102BC0000FD0A0F1010300FB051C03FB05183BF926
:102BD0001CC03BF91830BCEB030300D55B421C441E
:102BE000521C401C8742E7DC491C8E42DADC02B9E9
:102BF000012294FBF2F097E62DE9FF4F85B000210A
:102C00000391029101910091FA49012B0C6894F80B
:102C1000775005F00F0700D10027667D94F87A30D1
:102C2000C7F1100BB34200D21E46002304930123C8
:102C300081E000BF4FF00009C84603241FE0EC49C3
:102C400051F824C0012199401CEA010F04FB053111
:102C500030F911C0A4F1010101FB053130F9111067
:102C6000ACEB010106D0002900DA4942DDF818C0BA
:102C7000A1EB0C01002900DA49428944641CB442EA
:102C8000DDDB31469EF815A01FE0D94C54F821C079
:102C900001249C401CEA040F01FB053430F914C0E8
:102CA000A1F1010404FB053430F91440ACEB040439
:102CB00006D0002C00DA6442DDF818C0A4EB0C0446
:102CC000002C00DA6442A044491C8A45DDDC0499EA
:102CD000012910D10199B1EB090101D5C1F1000120
:102CE000039C214403910099B1EB080100D54942AE
:102CF000029C21440291CDE900899EF87B10994203
:102D000016D11168039D79430BFB0511CC1701EB1C
:102D10001471091111609168029D79430BFB051133
:102D2000CC1701EB147109119160002103910291FC
:102D300001215B1C0491AF49D1F800E09EF81450CA
:102D4000691E99423FF776AF5068039978430BFBB1
:102D50000100C11700EB117000115060D068029B98
:102D600078430BFB0300C11700EB11700011D0601A
:102D700009B0D9E504E000BF11F8013B00F8013BC0
:102D8000521EF9D270477CB50D460446FFF7E9FDA7
:102D90000090FFF7D9FD01900098042140080090B1
:102DA0006846FFF7FBFC0646042101A8FFF7F6FC86
:102DB0003044820021462846FFF7DCFF7CBD0B46ED
:102DC0008C4909684A7D097D521C4A4301465200DC
:102DD0001846CFE770B5044654210CF006F80023DE
:102DE000844D23806380286890F8C50700F00100B7
:102DF00043EA40106080296891F84517C90940EA04
:102E0000011060806360FFF707FEA060FFF79CFD84
:102E1000794EE0607088E082286800F24670C27ADD
:102E2000817A02F03F0241EA022121834178E17474
:102E300090F87A1021740178A17481782175017B52
:102E4000A1766E49407B097800F0F00001F00F0197
:102E50000843E076FFF785FDA062FFF775FDE062AD
:102E6000F08820866086286800F2C170017884F8B6
:102E70003610817884F83710C17884F8381010F84B
:102E8000BF1C84F83910012184F83A10417884F885
:102E90003B1010F85F1C84F83C1010F8571C84F8A5
:102EA0003D1010F86B1CA17710F8550C84F8430006
:102EB00084F8353084F8343070BD3F21B0FBF1F137
:102EC0003F314908B0FBF1F211444908B0FBF1F081
:102ED00008444008704710B50446FDF7D5F9012CA9
:102EE0000BD14448006890F81801800705D5FDF71C
:102EF000D9FC38B1FDF7D2FC04E0FDF7D3FC08B9EA
:102F0000FDF7C8FCBDE81040FDF7BCB93C4810B562
:102F1000006818B941F27070FDF7CBFDBDE81040B4
:102F20000020D8E7334B10B51A68947E640704D5A7
:102F3000D28A0468A2EB040202601A68947EA40795
:102F400003D5128B0C68121B0A600268002A00DA93
:102F5000002202601C68E48AA24200DD2246026070
:102F60000A68002A00DA00220A601C68248BA24248
:102F700000DD22460A601B689B7EDB0702D00368E7
:102F80000B60026010BDF0B500252C4609E000BFC3
:102F900031F9146030F91470F61B964200DD6D1C97
:102FA000641C9C42F4DB022D01D90120F0BD0020FD
:102FB000F0BD2DE9F04F9246DDE909B7012547F64E
:102FC000F87256429946AC46002420E030F814309E
:102FD00031F81480A8EB03031BB29A4200DD1A46B5
:102FE0009E4200DA1E46002B0CDA4FF000050CE082
:102FF0009C1E100024091000941F1000F6071000FA
:103000003405002201DD4FF0000C04F10104BC4244
:10301000DCDB55EA0C0306D0012D01D02DB108E010
:10302000BCF1010F05D1002203E0BCF1010F00D17A
:10303000324600252C462B4611E000BF30F81360C5
:1030400031F813C01644ACEB060636B24E4505DA2D
:10305000CBF1000C664501DD3544641C5B1CBB42B2
:10306000ECDB95FBF4F10A44002105E030F8113067
:1030700013442AF81130491CB942F7DB54E4F0B587
:103080000646002004460546521C059F0AE000BF84
:1030900036F911C09C4504DDA44502DD64460D46A9
:1030A0000120491C9142F3DB3D60F0BD70B50A4B35
:1030B0001B685C7D1B7D641C5C43002308E000BF33
:1030C00032F8135030F81360AD1B21F813505B1C1D
:1030D000A342F5DB70BD00002409100010B50146C5
:1030E0001022FA48FFF746FEBDE810404FF4006199
:1030F0000120FDF7C3B970B596B006460D461446DB
:103100006846FFF767FE14F0050F02D00120ADF806
:10311000000014F4F17F2DD0ED48036893F85001BE
:10312000C00706D193F8040318B993F8B001C0079B
:1031300020D093F80A07C007BDF8000002D040F085
:10314000060001E040F02000ADF8000014F0050F8B
:1031500010D1BDF8000003F2211340F00100ADF8DA
:10316000000058788DF8130018788DF81A009878B8
:103170008DF81E00ADF83250ADF81660ADF8305045
:10318000AFF2A700D14D03244FF4006601906846CA
:10319000FEF70BFA15AB002231460120FDF7BEF910
:1031A00031460120FDF799F92878002804D0FFF76F
:1031B00068F8641E002CEADC16B070BD10B5044639
:1031C000C00709D04FF4B861C2480BF0ECFD4FF4D2
:1031D000B851C1480BF0E7FD14F0420F07D02E2183
:1031E000BE480BF0E0FD4021BD480BF0DCFDA00621
:1031F0000AD5B821BB480BF0D6FDBDE810404FF40E
:103200008071B9480BF0CFBD10BD2DE9F0410746E4
:10321000AF48006890F82010490710D590F82100B9
:103220000125C0F3011085400024B04E05E0F1886F
:1032300070883A46FFF75FFF641CAC42F7DBBDE8DD
:10324000F0812DE9FF4F83B08046FFF7EBFB019043
:10325000FFF7E2FB009004216846FFF79FFA04465F
:10326000042101A8FFF79AFA44439948012640F641
:103270004851006890F8210000F00707BE409C48C4
:103280000BF0B3FD0025DFF86892DFF860A2DFF8ED
:103290003CB21CE0BAF8061042460498FFF72BFF38
:1032A00018F0050F12D09349DBF8040005F06CF913
:1032B000904A0020494607E051F8203032F910C00A
:1032C000634441F82030401CA042F5DB6D1CB54240
:1032D000E0DB18F0050F0CD00020494607E000BFE6
:1032E00051F82020059B3A4123F81020401CA042B1
:1032F000F6DB07B0BDE8F08F2DE9F74F744C84B0D2
:1033000092462068B0F83B100391B0F83D1002914E
:1033100090F85011C90706D190F8041319B990F824
:10332000B001C0077CD0FFF71CFB0090FFF744FB07
:10333000019004216846FFF731FA8146042101A873
:10334000FFF72CFA484445002068A046264690F82E
:103350002100012400F00707BC40A90064480BF0DD
:1033600044FD316891F8F002C20706D0800704D40A
:1033700091F8F102044404F0EDFE0026C34630E06B
:103380005A48DDE904214088FFF7B5FEDBF800105C
:103390004E4891F8C517D0F80880C90704D0C16815
:1033A0004246404604F078FFDBF8000090F8F00257
:1033B000C10708D0800706D44F49404604F0DBFE21
:1033C00070B1DFF834810020494907E051F820301E
:1033D00038F910201A4441F82020401CA842F5DB9F
:1033E000761CA642CCDB424C00215A461EE04048E7
:1033F000166850F8210096F8F03240FA07F05FEABC
:10340000C37C08D09B0706D596F8F1325B1C43437A
:10341000B6F8F202181AB1EB490F02DA039B01E089
:103420001DE0029B184424F81100491CA942DEDB70
:10343000106890F85011C90703D190F8B001C00787
:103440000DD0049810F0220F09D02046DAF80010B1
:10345000FFF78DFA2046DAF80410FFF7AEFA48E7D6
:103460002DE9F0479A461A4B8946002101251D4E49
:103470001C681CE032F8113030F81170DB1B1FB2F1
:1034800000230CE0C3EBC30C0CEB031C06EB4C0C51
:103490005B1C3CF811801BB2B8442CF8118094F8E6
:1034A00080C305EB9C1C9C45ECDC491C09B2637D88
:1034B0008B42DFDC00200C4A31E000BF3AF81030CC
:1034C00039F81010591A0BB2002120E0B43710005F
:1034D000240910004200012002060120021D0120E3
:1034E000301D01204C1E0120321F0120941F1000AE
:1034F00054111000208B0120E090012002EB811676
:10350000491C36F8107009B21F4426F8107094F860
:10351000806305EB96168E42F0DC401C00B2217DE4
:103520008142CBDCBDE8F0872DE9F041FE4DFF4E36
:10353000074600242868002300EB4400B0F8EF1091
:10354000C4EBC40000EB041006EB80123846FFF712
:1035500078FE641C042CEDDB71E62DE9FE4FF24C85
:10356000824600F49070216891F88013490739D59C
:10357000002837D000252F46DFF8B483DFF8B49356
:10358000012613E000EB4500B0F8B213C5EBC5000F
:1035900000EB051208EB4200009009EB8510CDE925
:1035A00001076A465046FFF7A7FE6D1C206890F899
:1035B000801306EB9111A942E4DC90F85011C90781
:1035C00010D090F8911109060CD5407DD8494200E1
:1035D000D948FFF7CFFB2068D649007D4200D74885
:1035E000FFF7C8FBBDE8FE8FFEB5014610F0820074
:1035F00034D0CD4A01F49076D149126800240123D9
:1036000092F88053C98803EB951306E002EB440758
:10361000B7F8B273B94202D0641CA342F6DCA342ED
:103620001DDD6B071BD5D6B192F85001C00703D141
:1036300092F8B001C00711D0C4EBC400BC4900EB44
:10364000041001EB40012E22BE48FFF793FBB9485E
:10365000402200EB8411BC48FFF78CFBFEBD00222A
:103660000292B84A0092B84A01926A46FFF744FEB5
:10367000FEBD2DE9F04105460020FCF7F0FF0320D8
:10368000FCF7EDFF15F040060AD02E22AD49AF48F9
:10369000FFF770FBAD484022AB492E30FFF76AFBC5
:1036A0002846FFF78BFDAA490020401C8842FCD326
:1036B000A8480178012904D1002101702846FFF7AC
:1036C000A4FD994C05F00400216891F8D010490739
:1036D00003D510B12846FFF727FF216805F4907045
:1036E00091F88013490703D510B12846FFF735FF3D
:1036F00015F0010706D092480023974A41883846C2
:10370000FFF79FFDF80717D0206890F8200000070A
:103710000AD59148FFF731FA90490123904A086091
:1037200001468D48FFF768FA206890F84904C00701
:1037300002D0284602F010F815F0820F0AD0284671
:10374000FFF752FF206890F84904800702D5284609
:1037500002F0CAF85EB1206890F88003400706D5F1
:103760007A49794B774A2E317848FFF779FE7D49BF
:10377000012008707C49087005F065FB0020FCF70B
:1037800089FFBDE8F0410320FCF784BFF0B466492F
:103790000022664C0B68B3F8EF10814213D2B3F8E5
:1037A000F510814201D803220DE0012103EB410510
:1037B000B5F8EF50A84201D10A4602E00FD2A1F1BC
:1037C00001028A420FD1C2EBC20000EB021004EBEF
:1037D0008011F0BC4FF4B8625F48FFF7CBBA491CC8
:1037E0000429E3DBEFE703EB41035B4D33F8ED2FF7
:1037F0004FF438765B88801A00029A1A90FBF2F335
:10380000C1EBC10202EB0111002004EB811100BFEA
:1038100001EB4002A2F5B86231F91040B2F9002084
:10382000A41A5C4302EB242225F81020401CB0426D
:10383000EEDBF0BC70472DE9F0413B4900253C4AE6
:1038400009683C4EB1F8B23383421AD291F8803302
:103850009C0901EB4407B7F8B27387420AD90124E7
:1038600004EB931313E000BF01EB4407B7F8B27306
:10387000B84201D1254602E008D2A4F10105A542D3
:103880001ED191F85001C00708D103E0641CA34287
:10389000EADCF6E791F8B001C00744D0C5EBC500FB
:1038A00000EB051002EB40012E222648FFF762FADA
:1038B00006EB8511BDE8F04140222348FFF75ABAD4
:1038C00001EB4405B5F8B033B5F8B253C01A0002A5
:1038D000EB1A90FBF3F391F85001C00703D191F874
:1038E000B001C0071FD0C4EBC401164D01EB041199
:1038F000002002EB410100BF01EB400231F91070E2
:1039000032F92E2CBF1A5F4302EB272225F8102034
:10391000401C1728F0DB0C4D002006EB841200BF82
:1039200002EB400122E02EE02409100002060120F3
:103930004C1E0120321F0120041F012032200120D3
:10394000941F1000021D0120301D0120443710007B
:1039500020A107002C09100042000120540910008A
:10396000F81E10003A0910005F09100031F9401CE0
:1039700032F91040641A5C4301EB242125F8101041
:10398000401C2028CCDB5AE470B534480123037076
:103990003348017F41F0040101773249096891F809
:1039A0001E214FF00001D4070CD0C2F34202012ABD
:1039B00008D12D4A1160121F11602C4AC414C2F89C
:1039C000FC41D46780F86010482484761122C276C6
:1039D00080F8603044258576C276254D2960FF2128
:1039E00056073186042180F860108476C2762B60F9
:1039F00070BD1B4810B5017F41F0040101771949E2
:103A0000096891F81E214FF00001D3070BD0C2F3D3
:103A10004202012A07D1154BC414FC331C60124B1F
:103A20001A601B1F1A604FF00052538E104C216019
:103A300080F86010482484761124C476108E4FF4E8
:103A4000FA42C01A80B2B2FBF0F00A4A00091070C4
:103A50005520521E10700148017010BD74091000ED
:103A60000010002024091000240A002284E000E055
:103A700024050022F307100010B501461022F94872
:103A8000FFF778F98021BDE810400120FCF7F6BC73
:103A900030B597B004466846FFF79CF90021012C29
:103AA00002D0022C08D01CE001208DF81210ADF8D5
:103AB00000008DF8101014E0EB48006890F80A0739
:103AC000C00701D0062000E02020ADF80000E74844
:103AD0008DF838108DF83710416849000A918068D8
:103AE0000B90BDF80200AFF26F0140F4A670DD4DFF
:103AF0000191ADF8020003246846FDF756FD15ABB1
:103B0000002280210120FCF709FD80210120FCF723
:103B1000E4FC2878002804D0FEF7B3FB641E002CD8
:103B2000EADC17B030BD2DE9F04100240120FFF799
:103B3000AFFFCC484568CC4801684A7D087D521CDF
:103B400000FB02F61DE000BF35F91020002A02DC60
:103B500044F0200414E040F6FF739A4202DB44F084
:103B600010040DE0B1F83471B1F8BE3107EB030C6D
:103B7000944505DAFF1A974202DD0BB144F0400488
:103B8000401C8642E0DC2046BDE8F0810246182158
:103B90005FF0010000FA01F3134201D1491EF9D58B
:103BA000491C8840104370472DE9F05FFEF734FF51
:103BB0000546FEF737FFAC4C0746206890F84507EE
:103BC000000603D52846FFF7E1FF05464FEA5509F1
:103BD0004FF4B861A6480BF0E6F84FF027084FF015
:103BE000000A0120FFF754FF9E480026D0F804B0D9
:103BF0009D480068047D34E0012000FA06F111EAD6
:103C0000090F2DD000250120A840384225D0294693
:103C10003046FEF710FF9449DFF854C209683CF9BA
:103C20001430B1F83421991A3BF91430A3EB020295
:103C300000D54942002A00DA5242914204DB8D4904
:103C40002CF8143021F814003F2805D2401CC2B2D1
:103C500029463046FEF707FF641C6D1C202DD2DB81
:103C6000761C4645C8DBFDF700FF0AF1010ABAF1F0
:103C7000400FB6DB7C484FF0010B00250068067D45
:103C8000012101FA05F010EA090F16D000240120E5
:103C9000A04038420ED07748214610F816008246E0
:103CA00002462846FEF7DFFEBAF13F0F01D34FF080
:103CB000000B761C641C202CE9DB6D1C4545DFDB0A
:103CC000BBF1000F02D10320FEF7FFFAFDF7CDFE96
:103CD0000120FFF7DDFEBDE8F05F24E72DE9F05F8E
:103CE000614A116891F83001C4076348037803F012
:103CF000F00514D0057000264B7D0C7DDFF864A123
:103D00005B1CB046914604FB03F783460120FFF796
:103D1000BFFE2046DAF80420D9F800100FE091F831
:103D20003E1101F00F0129430170BDE8F09F00BF73
:103D300032F91030B1F832C16345F6DB401C8742DE
:103D4000F6DC0F2E0AD2761CF6B245EA060108F11F
:103D500001088BF80010B8F1100FD7DBBDE8F05F59
:103D60000220FEF7B2BA10B501244FF4E16120053C
:103D70000BF03BF8FDF779FEFFF7B0FFFFF714FFFC
:103D8000394A44EA00643C481268401D017892F8C0
:103D9000FB2701F0F00102F00F02114301703748D8
:103DA000FEF7AFFE2046BDE8104005F056BA2DE9FB
:103DB000F04F2E4D2C4B0020D5F814906E68D3F8A0
:103DC000003004460246012140F6FF7B01FA02F76B
:103DD00037421CD039F914A0BAF1000F02DC40F0D0
:103DE000200013E0DA4502DB40F010000EE0B3F8EB
:103DF00036C1B3F84171E6460CEB0708D04503DB4A
:103E0000AEEB070CD44501DD40F04000641C521CB1
:103E1000202ADBD30024AF69AE68224601FA02F5FE
:103E200035421AD037F91450002D02DC40F0200042
:103E300012E05D4502DB40F010000DE0B3F83A817E
:103E4000B3F8439108EB090CAC4503DBA8EB090C74
:103E5000AC4501DD40F04000641C521C202ADDD33B
:103E6000BDE8F08FC4371000240910007809100055
:103E7000A69F012066A50120F60710009C1E1000D9
:103E80002DE9F84F1E21F6480AF0AFFFF4482D2126
:103E90001E300AF088FFFDF7B4FEFDF753FE042044
:103EA000F04CDFF8C4A303254FF000084FF00109E0
:103EB00000900220FFF7ECFDE8072BD04FF0000B3D
:103EC0005F465E46616809FA06F008421AD040F281
:103ED0006C713046FEF7E5FD616931F91720DAF8BB
:103EE0000010B1F845118A420BDA3F2809D2009937
:103EF0004FF0010B0844C1B240F26C723046FEF73D
:103F0000E5FD7F1C761C202EDCD3BBF1000F01D118
:103F100025F00105A8072BD54FF0000B5F465E4644
:103F2000A16809FA06F008421AD040F28A713046B8
:103F3000FEF7B7FDA16931F91720DAF80010B1F8E2
:103F400047118A420BDA3F2809D200994FF0010B42
:103F50000844C1B240F28A723046FEF7B7FD7F1CBA
:103F6000761C202EDCD3BBF1000F01D125F0020519
:103F700045B1FDF746FEFDF7E5FD08F10108B8F192
:103F8000640F96DB03254FF000080220FFF780FD49
:103F9000E80729D04FF0000B5F465E46616809FADA
:103FA00006F0084218D040F26C713046FEF779FDF9
:103FB000616931F91720DAF80010B1F845118A4229
:103FC00009DD40B1401EC1B24FF0010B40F26C72EE
:103FD0003046FEF77BFD7F1C761C202EDED3BBF126
:103FE000000F01D125F00105A80729D54FF0000BDE
:103FF0005F465E46A16809FA06F0084218D040F212
:104000008A713046FEF74DFDA16931F91720DAF8C3
:104010000010B1F847118A4209DD40B1401EC1B21B
:104020004FF0010B40F28A723046FEF74FFD7F1CC5
:10403000761C202EDED3BBF1000F01D125F0020546
:10404000002D08D0FDF7DDFDFDF77CFD08F101082E
:10405000B8F1640F99DBBDE8F88F2DE9F041804D90
:10406000002089351E2128707D480AF0BEFE7C485C
:104070002D211E300AF097FEFDF764FDFDF7C1FD0E
:10408000784E00270220FFF703FDD6E90432002412
:10409000204605E032F91010A14200DD0C46401C1C
:1040A0009842F7DB0020F368B26905E032F910109E
:1040B000A14200DD0C46401C9842F7DB002C09DCD5
:1040C00028780F2803D8401C2870FDF79AFD7F1C24
:1040D000202FD7DB40F6FE70844206DD2878401E94
:1040E0002870BDE8F041FDF78CBD4DE52DE9F05F8E
:1040F0005C4C00205A4F6668643F0146034601222B
:1041000002FA03F5354203D0FD5C854200D928460A
:104110005B1C202BF4D3524DD4F808603C3D0023A7
:1041200002FA03F7374203D0EF5C8F4200D93946D9
:104130005B1C202BF4D3DFF828814B4D08F18D0850
:1041400008F1010988F8000089F800102A68A8F130
:10415000020AA8F1010B92F80A37DE077ED09B070E
:104160007CD502F259721479D37804F03F0403EB42
:1041700004249579537905F03F0503EB0525167B5B
:10418000D37A06F03F0603EB0626977B537B127823
:1041900007F03F0703EB072752060BD5631900EB27
:1041A00043009AF80020F31910449BF8002001EB1B
:1041B00043010CE06219520002EB40029AF8000041
:1041C0001044F219520002EB41029BF80010114416
:1041D000FEF7FBFA2449096801F20B72B1F80B37BC
:1041E000834201D2A1F80B0791F80A07400734D5A2
:1041F00091F85907400617D5600040426B4291F88C
:104200000B1700EB430001449AF80000081A88F8E5
:10421000000070004042794200EB410011780144F7
:104220009BF80000081A3EE09AF800006319184451
:10423000B1F80B17404201EB4000C0F3470188F88A
:1042400000109BF80000F11908441188404201EB6E
:104250004000C0F3470189F8001066E506E0000061
:104260006C0710007809100024091000FD4D9AF821
:1042700000209BF800302D6802440B44FF2645F0D7
:1042800080059A4209D2991A0844FF2802D888F872
:1042900000004AE588F800600AE09342DDD2D01AB7
:1042A0000844FF2802D889F800003EE589F800603C
:1042B00025603AE52DE9F0410020EB4CE94BEB4A53
:1042C000012105465F6801FA00F63E4209D01768F1
:1042D000265C97F84A71BE4202D9F61B265400E0CC
:1042E0002554401C2028EDD3DF4C28345FF000001B
:1042F0009F6801FA00F63E4209D01768265C97F8DD
:104300004A71BE4202D9F61B265400E02554401CD7
:104310002028EDD3FFF7EAFEBDE8F041FDF74CBCE5
:104320002DE9F84FD048D04D0646283528210AF00F
:104330005CFD3C2128460AF058FDFFF7D7FEFDF74B
:1043400060FCFDF739FC04200324DFF818A3DFF834
:104350001CB300274FF0010900900220FFF798FBE3
:10436000E00728D04FF0000C624660464FEA0A038F
:1043700009FA00F1D3F8048011EA080F13D0596943
:1043800031F91280DBF80010B1F83811884509DAEC
:10439000315CDDF800804FF0010C4144FF2900DD65
:1043A000FF213154521C401C2028E1D3BCF1000FE6
:1043B00001D124F00104A00727D54FF0000C62467C
:1043C0006046534609FA00F1D3F8088011EA080F55
:1043D00013D0996931F91280DBF80010B1F83C1163
:1043E000884509DA295CDDF800804FF0010C414472
:1043F000FF2900DDFF212954521C401C2028E1D355
:10440000BCF1000F01D124F0020444B1FFF76EFEAD
:10441000FDF7F7FBFDF7D0FB7F1C642F9DDB03242A
:1044200000270220FFF734FBE00724D04FF0000EF6
:10443000714670465246DC46D2F8048009FA00F311
:1044400013EA080F0FD05369DCF8008033F91130FC
:10445000B8F83881434505DD335C1BB15B1E4FF076
:10446000010E3354491C401C2028E5D3BEF1000F37
:1044700001D124F00104A00725D54FF0000E7146AC
:10448000704652464FEA0B0CD2F8088009FA00F346
:1044900013EA080F0FD09369DCF8008033F911306C
:1044A000B8F83C81434505DD2B5C1BB15B1E4FF02A
:1044B000010E2B54491C401C2028E5D3BEF1000FEF
:1044C00001D124F00204002C08D0FFF70FFEFDF705
:1044D00098FBFDF771FB7F1C642FA2DBBBE56349F2
:1044E00030B409680020034691F8302192070CD5BA
:1044F0005D4A91F84941EF3201201578A54203D970
:10450000A5EB0404147000E0137091F830215207F9
:104510000CD5554A91F84911F03240F00200147858
:104520008C4202D9611A117000E01370002801D08A
:1045300030BCDBE530BC70472DE9F0474B49002427
:104540004B4D0868274690F83021920702D5012488
:104550002F7002E090F83F212A70894690F83011C0
:10456000444E490703D544F00204377002E090F846
:1045700040013070002C7FD028213B480AF035FCE8
:1045800039483C2128300AF030FC39481E21801E71
:104590000770354864300AF028FC35482D216D3805
:1045A0000AF001FC3349FF20891C0870491E08707D
:1045B000FDF702FBFDF7C6FAFDF723FBDFF8A48049
:1045C0004FF0100A00270220FFF762FAE00723D01D
:1045D000D8E9043C0020014606E000BF3CF9112068
:1045E000824200DD1046491C9942F7DBD9F80010E1
:1045F000B1F83621824202DA2878401E08E0B1F88C
:104600004B11814206DB28785044FF2800DDFF2053
:10461000287001E024F00104A00730D500200146F5
:10462000D8F80CC0D8F8183006E000BF33F91120D4
:10463000824200DD1046491C6145F7DBD9F80010C5
:10464000B1F83A21824202DA3078401E08E0B1F82F
:104650004B11814211DB30785044FF2800DDFF20F0
:1046600030700CE0780910000807100024091000D1
:10467000F7071000F80710000AE024F00204002CED
:1046800006D0FFF733FDFDF7BCFA7F1C202F9ADB25
:10469000BDE8F08770B5324C00202060FEF761F96C
:1046A0006060FEF789F9A0606068042140086060DE
:1046B000201DFEF773F82061042104F10800FEF7C5
:1046C0006DF8E0600220FFF7E3F9264E2169B0683B
:1046D00000EB41026261E26802EB410100EB410044
:1046E000A061FFF729FFFFF7FAFE1F4D286890F839
:1046F0003001800603D5FFF713FEFFF7DBFD2868C6
:1047000090F83001000701D5FFF7A7FC286890F862
:104710003001C00601D5FFF7B3FBFDF772FA0220A6
:10472000FFF7B6F9B068216900EB41026261E26807
:1047300002EB410100EB4100A061FFF738FB21686B
:104740000143216009482A68037892F8FB2763F344
:1047500003020270BDE8704041F0020004F07DBD2C
:1047600078091000C437100024091000FB0710005E
:1047700010B5014610229348FEF7FCFA8021BDE8EF
:1047800010400120FBF77ABEF0B58F4D06460C466F
:1047900028684FF0FF3197B090F8B10000F00F009B
:1047A000401C8140CF436846FEF714FB0120ADF862
:1047B0000000ADF80240286810F8F91F8DF81310BA
:1047C00044F00501ADF802100297ADF81660AFF2A3
:1047D0005F01019141788DF814108078794D8DF842
:1047E0001A0003246846FCF7E0FE15AB0022802186
:1047F0000120FBF793FE80210120FBF76EFE287855
:10480000002804D0FDF73DFD641E002CEADC17B043
:10481000F0BD2DE9F0476C4D4FF00009DFF8A481A1
:10482000286800F570700478467887781AE0494661
:104830002046FFF7A9FFD8F8040007F0D9FF01468A
:10484000286890F8F82012F00F0000D1012012091A
:104850004A43B2FBF0F082B22146302004F040FD22
:10486000E01984B2B442E2DDBDE8F0872DE9FF5FD4
:104870004FF6FF764FF0000A93460F4680463446C7
:104880005546DFF844911BE038F815005146FFF714
:104890007BFF4C48406807F0ABFFD9F8001091F857
:1048A000F82012F00F0100D1012112094243B2FB9E
:1048B000F1F080B2A04202D238F8156004466D1CB7
:1048C000BD42E1DBABF8006003980480BDE8FF9FC8
:1048D0002DE9F0413C4E05468846306888B090F896
:1048E000D12002F00F01C2F30214491C641C0A29F2
:1048F00000DD0A21022C00DD0224D23006AB05AA1D
:10490000FFF7B4FF326892F8D00080071BD5BDF8DE
:1049100014600121E632ADF8006000204FF4803CC5
:104920006F4607E013563344634502D227F811302F
:10493000491C401CA042F5DB002904DD06AB05AA9A
:104940003846FFF793FFBDF814002880BDF8181013
:10495000A8F8001008B0BDE8F0817CB50020FBF796
:104960007EFE1A4C01A968466588FFF7B1FF164E16
:104970003068B0F8E810BDF80400814201D9218008
:1049800000E02080BDF8000060800020FBF782FE80
:10499000BDF80000854207D0306890F8D00040078D
:1049A00002D56088FEF7F2FE094901200870094926
:1049B000087009490870BDF800202946092004F054
:1049C00072FC7CBDD437100024091000941F100025
:1049D0003A0910005F0910006E0910002DE9F04738
:1049E0000178FE4C01B1217001461022FC48FEF70F
:1049F000C1F9FC4B186890F8C517CA07F84901D0EF
:104A0000CD6800E08D68417D6068F74E414300202D
:104A100017E000BF92F8F0725FEAC77C0BD0BF07C7
:104A200009D592F8F12235F81070521C57430A1834
:104A300026F8127004E00F1835F8102026F8172019
:104A4000401C1A68577D8742E4DC616801F101016E
:104A50006160507D4FF0000200FB01F71CE000BFD9
:104A600091F8F0C25FEACC780ED05FEA8C7C0BD56F
:104A700000EB020C91F8F11235F81CC0491C0CFB3C
:104A800001FCB91826F811C0811807EB020C35F8A3
:104A9000111026F81C10521C196891F815C0944585
:104AA000DEDC60684FF0010800F10100606091F801
:104AB000B12008EB121491F8F022D50705D0950724
:104AC00003D491F8F1522C44E4B2A0421DDA91F8DB
:104AD0000A27D20713D091F8BA1380B201F00F0160
:104AE000B0FBF1F201FB1201BD48543800294188A6
:104AF00002D041F0020101E021F002014180BDE855
:104B0000F047B7485438FCF750BDD0072FD0900776
:104B10002DD4B1F8F2A2002522E0417DB2486943CC
:104B200000EB41018946002015E000BF94F8F142F6
:104B3000012231F91060641C06E000BF02FB070C83
:104B4000521C31F91CC066449442F7DCA6EB0A0201
:104B500029F81020401C1C68677D8742E6DC6D1C2C
:104B6000186890F8B11008EB1111A942D5DCBDE826
:104B7000F04780210120FBF781BC2DE9FF4FDFF8D2
:104B800060B24FF6FF74002581B08A46A046ABF1B3
:104B9000540BA946914E5DE091485438FEF71AF93E
:104BA000904A116891F8C507C00701D0102300E0B2
:104BB0000223ABF80030019830F81530ABF83030F4
:104BC000BBF8023043F00403ABF80230AFF2F3134A
:104BD00001F2C931CBF804300A788BF83620CA7854
:104BE0008BF838204A788BF83B2089788BF83C107A
:104BF0000327C6F8049000BF794886F8009054381F
:104C0000FCF7D3FC6B46002280210120FBF786FCD9
:104C100080210120FBF761FC307820B1FDF731FBEA
:104C20007F1E002FE8DC704802F02BFD6D490968FB
:104C300091F8C82312F00F0100D10121120942435B
:104C400090B2B0FBF1F0A04203D20199044631F8D2
:104C500015806D1C55459FDB0399A1F800800498D1
:104C6000048005B0BDE8F08F2DE9F0415D4D0646AA
:104C7000884628688CB000F2823C00F2963790F8A3
:104C8000810300F00F01C0F30214491C641C0A29BF
:104C900000DD0A21022C00DD02240AAB09AA6046CD
:104CA000FFF76BFF286890F8800380071AD5BDF8DE
:104CB00024300121ADF8003000204FF4803C6D46D7
:104CC00007E03A561A44624502D225F81120491CE1
:104CD000401CA042F5DB012904DD0AAB09AA2846E5
:104CE000FFF74BFFBDF824003080BDF82810A8F86E
:104CF00000100CB0BDE8F0817CB50020FBF7AFFCE4
:104D00003A4C01A96846E588FFF7AEFF35480168CF
:104D1000BDF80400B1F8AC23824201D9A28000E0C2
:104D2000A080BDF80000E0802081854205D091F888
:104D30008013490701D5FEF77EFD2D49012008703B
:104D40002C4908702C49002008602C490870FBF79A
:104D5000A1FCBDF8002029460A2004F0A4FA7CBD7D
:104D60002DE9F8431F4DDFF878802868A8F1540832
:104D700000F2C33004884688077947E01848543861
:104D8000FEF728F8286890F8C507C00701D0102161
:104D900000E00221A8F80010A8F83040B8F802108E
:104DA00041F00401A8F80210AFF2CF31C8F80410A6
:104DB0000A49002048600A485438FCF7F6FB6B4665
:104DC000002280210120FBF7A9FB80210120FBF7B5
:104DD00084FB054802F055FC024611E094091000DE
:104DE000383810002409100098920120941F1000F8
:104DF0003A0910005F091000A80A1000A30A100069
:104E00002146312004F06CFAE01984B2B442B5DDD9
:104E1000BDE8F8832DE9F041174604460D4600260B
:104E200009E0E00703D03146384604F074F9761CF7
:104E30006D084FEA340454EA0500F2D1BDE8F08170
:104E400030B5034600204FF0FF32012505FA00F48B
:104E50000C4202D0521C9A4203D0401C2028F5D3A9
:104E6000002030BDF0B50E460125074605FA06F2D2
:104E7000FE4C0F2FD4E9151065D2DFE807F064432C
:104E80004B08106464192129323A54585C003046AA
:104E9000FFF7D6FF8540A06A0543A56253E00146AF
:104EA0003046FFF7CDFF8540206C054325644AE07E
:104EB0003046FFF7C5FF8540E06A0543E56242E002
:104EC0003046FFF7BDFF8540206B054325633AE080
:104ED00001463046FFF7B4FF8540A06C0543A5644A
:104EE00031E03046FFF7ACFF8540606B05436563FA
:104EF00029E001463046FFF7A3FF8540E06C0543FB
:104F0000E56420E03046FFF79BFF8540606A05437B
:104F1000656218E001463046FFF792FF8540E06B7E
:104F20000543E5630FE0A06B0243A2630BE0206D35
:104F30000243226507E001463046FFF781FF8540C6
:104F4000606C054365642068401C2060F0BD10B5AE
:104F500001461022C648FDF70DFF8021BDE8104034
:104F60000120FBF78BBAFDF7EFBC10B5FDF7DEFCB7
:104F70004008400010BD2DE9F047894605464FF036
:104F8000FF34FDF7E1FCB94F00231946D7F8046060
:104F90004FF0010C0CFA01F2024200D0641CAC424A
:104FA00006D1B9F1010F0AD020EA02030E462021F2
:104FB000491C2029EED318467E60BDE8F0871346D1
:104FC000F4E72DE9F047894605464FF0FF34FFF737
:104FD000CCFFA64F024600207B6801464FF0010C33
:104FE0000CFA01F6164200D0641CAC4206D1B9F1AD
:104FF000010F08D022EA06000B461721491C172989
:10500000EED37B60D9E73046F6E7F0B59BB00446B7
:105010000F466846FDF7DEFE15A8FDF719F8FFF705
:10502000A4FF924E40087065FDF78EFC914DB0656F
:10503000012C0BD02026022C26D0032C2AD0042CA5
:105040002DD0052C34D0062C52D068E0FDF7E4FCBE
:105050000290FDF7E7FC03900120ADF800000C2062
:10506000ADF816001F208DF8140040208DF81300B5
:1050700095208DF81A003C20ADF8180002984008E1
:1050800070650398B0654AE0FFF76FFF0A90FDF77F
:105090005BFC14E0FDF758FC01210B9003E0FDF7E9
:1050A00053FC00210B903846FFF78BFF0A9007E076
:1050B000FFF75BFF0A9001213846FFF75CFF0B907A
:1050C000ADF80060286800F55A7081788DF83610C8
:1050D000C1788DF83B1001788DF83C1041788DF83F
:1050E0003D108188ADF830100089ADF8320016E02F
:1050F000FFF73BFF0A90FDF727FC0B90ADF800602F
:10510000286800F2613081788DF83610C1788DF80A
:105110003B1001788DF83C1040788DF83D00002060
:10512000BDF802108DF8380021F030018DF8100024
:1051300041F04A018DF837008DF81200ADF80210E9
:10514000AFF2F51103260191012C12D0092C23D0C6
:105150000A2C21D08DF85E008DF860008DF85F007C
:10516000022C10D0032C0ED0042C0CD0052C0AD00D
:1051700012E0296891F84D178DF8580041F00301AD
:105180008DF85410E6E72868B0F86E13ADF85A10A1
:10519000B0F87203ADF85C0015A8FCF77AFF344C48
:1051A0006846FCF702FA19AB002280210120FBF7C8
:1051B000B5F980210120FBF790F92078002804D070
:1051C000FDF75FF8761E002EEADC1BB0F0BD2DE97E
:1051D000FC5F00210120FFF718FF25484768FDF715
:1051E0001BFC0190FDF71EFC0090042101A8FDF7B7
:1051F000D5FA064604216846FDF7D0FA8446002019
:105200000546DFF868B0DFF86CA000905BE000BFF7
:105210004FF00008C1465C462846DBF85810FFF7FF
:105220000FFE014601208840A16C08424AD10124AA
:1052300039E000BF04FB0C51DAF8000037F9112007
:1052400090F86703B2EB001F2CDA08F10108B9F1FE
:10525000000F00D1A146721E944223D1B8F1010F74
:1052600020D1ACF1010295420BD105E09C09100060
:105270004838100024091000611E0120FFF7F2FDDC
:105280000EE007EB4101B1F90220B2EB001F05DB94
:1052900035B131F9021CB1EB001F01DA002000E04A
:1052A00002208046641CB442C4DBA6EB09014145E0
:1052B00008D829460220FFF7D5FD01200099A84013
:1052C000084300906D1C6545A2DB01253BE000BF53
:1052D0004FF0000844462CE0DBF84030DBF8482073
:1052E00000201A4311D0D9462046DBF85810FFF7AA
:1052F000A7FD014601208840D9F84810084203D193
:10530000D9F84010084000D0012005FB0C4137F9C6
:105310001120DAF8001091F86713B2EB011F07DAD9
:1053200030B901200099A040084201D108F10108DC
:10533000641C6445D0DBB8F1000F03D0691E012066
:10534000FFF790FD6D1CB542C2DBBDE8FC9F2DE967
:10535000F041E04C00200546DF4FDFF88083A0617C
:105360001EE029460520FFF750FE21690120BE6896
:1053700000EB410C36F91C10D8F8000090F87703C8
:10538000B1EB001F03D929460E20FFF76BFD36F95C
:105390001C00A169884202DD36F91C00A0616D1C69
:1053A00060698542DDD349E52DE9F0410021062001
:1053B000FFF72BFEC8480025C84EC64C87680EE094
:1053C000E0683168284437F9100091F86513B0EBB4
:1053D000011F03DD29460A20FFF744FD6D1C2069EB
:1053E0008542EDDB00250EE0A0683168284437F9DE
:1053F000100091F86613B0EB011F03DD29460B2066
:10540000FFF730FD6D1C60698542EDDB16E52DE987
:10541000F041B04C00200646206237E031460420BF
:10542000FFF7F3FDAC48002587682BE0FDF78CFA09
:1054300001462846FFF704FD014601208840216C03
:1054400008421ED1A549A0682844096807EB40001E
:1054500030F9040C91F87813B0EB011F07D93146ED
:105460000820FFF7FFFC29460920FFF7FBFCA06896
:10547000216A284407EB400030F9040C884200DD23
:1054800020626D1C60698542D0D3761C20698642FB
:10549000C4D3D3E42DE9F0418E4C002005468E4F55
:1054A000DFF83882E0611AE029460320FFF7ADFDFE
:1054B000BE68B6F90210D8F8000090F87603B1EB98
:1054C000001F03D929460720FFF7CCFCB6F90200DC
:1054D000E169884202DDB6F90200E0616D1C2069D5
:1054E0008542E1D3AAE42DE9F04100210220FFF733
:1054F0008CFD7948794D774C8768286890F860036F
:10550000000713D500260EE0E0682968304437F91B
:10551000100091F87413B0EB011F03D9314603203A
:10552000FFF7A0FC761C20698642EDDB286890F826
:105530006003C00613D500260EE0A0682968304439
:1055400037F9100091F87513B0EB011F03D93146FC
:105550000420FFF787FC761C60698642EDDB6DE472
:105560002DE9FC410020FBF77AF84FF4801041123E
:1055700009F019FCFCF745FBFCF71EFBFCF775FA7C
:10558000544C00202060FFF7F0FC0090FDF7DCF9A0
:10559000019004216846FDF701F90546042101A8A0
:1055A000FDF7FCF8014600EB4500C4E90205C4E93B
:1055B00004514A4D286890F86003010701D4C006E1
:1055C00001D5FFF790FF286890F86003800601D5A9
:1055D000FFF760FF286890F86003000601D5FFF729
:1055E00016FF286890F86003C00701D0FFF7DCFEC3
:1055F000286890F86003400601D5FFF7A8FE2868E8
:1056000090F86003800701D5FFF7E1FD20680028CE
:105610005BD0D4E90A359D43E562606AD4E90F178F
:105620009843A8436062666CB943B143E163A16BE0
:10563000226D9943A943256BBA43A943A163A16C89
:10564000B2438A43AB43A362226501220021FFF7E4
:10565000E1FB02220021E06BFFF7DCFB03220021CB
:10566000A06AFFF7D7FB04220021206CFFF7D2FBD2
:1056700007220021E06AFFF7CDFB08220021206B02
:10568000FFF7C8FB09220021A06CFFF7C3FB0A2229
:105690000021606BFFF7BEFB0B220021E06CFFF7DF
:1056A000B9FB0C220021A06BFFF7B4FB0D220021F7
:1056B000206DFFF7AFFB0E220021606CFFF7AAFB05
:1056C0000020FAF7E7FFBDE8FC810021084603F05F
:1056D00022FDF5E79C09100048381000240910004D
:1056E000F0B5A9480068437D017DB0F84C44B0F89E
:1056F0004A64A6484B4300EB410500210A46084690
:105700000AE000BF35F91070A74201DD491C02E034
:10571000B74200DA521C401C9842F3DB914201DD93
:105720000120F0BD0020F0BD10B5FFF7D9FF044601
:1057300001280FD19648016841F0050101609548A4
:10574000016841F020010160934901200870810245
:10575000FAF794FE204610BD2DE9F04180468D48B1
:1057600000252E460078800623D500248B4F0AE0C2
:10577000012808D1FEF7F7FA012579880023834A2A
:105780004046FDF75EFDFFF7ABFF48B1641C032CFC
:10579000EEDB012E04D0BDE8F0410020FCF795BD02
:1057A000C12003F05AFD012D03D1BDE8F04109F0FD
:1057B000C8B9BDE8F0812DE9F05F734F0121386869
:1057C00000F25640B0F900A0B0F90440B0F902B0C0
:1057D000B0F906500AEB040000EBD07040F34F061E
:1057E0000BEB050000EBD07040F34F0932465A2016
:1057F00003F071FC4A4601215A2003F06CFC396821
:10580000012300200246DFF898E14F7D12E000BF3F
:105810003EF912C0B1F85284C44503DBB1F84E849E
:10582000C44506DDB1F84E840023C44501DD0120E6
:105830003A46521C9742EBD80022DFF868E10F7D10
:1058400012E000BF3EF912C0B1F85484C44503DB36
:10585000B1F85084C44506DDB1F850840023C44536
:1058600001DD01203A46521C9742EBD801280BD0AB
:10587000012B0BD02E214C4809F095FA4A484021C3
:105880002E3009F090FA0020BDE8F09F0020474F2D
:10589000DFF814C102460CE037F91030A34201DBF7
:1058A000534503DDF31A2CF8103001E02CF81020DA
:1058B000401C4B7D8342EFD83B4C00203C4E2E34A5
:1058C0000EE000BF36F91030AB4201DB5B4504DD72
:1058D000A9EB030324F8103001E024F81020401C49
:1058E0000B7D8342EED8CEE72DE9FC41804631485E
:1058F000002637460078800627D5002504E0012CD5
:1059000002D14046FDF770FEFFF755FF044601281F
:1059100006D1FEF7BFFE01266D1C032DEFDB17B18C
:10592000012E0DD00EE00120FCF7CFFC2E211E48E9
:1059300009F039FA1C4840212E3009F034FA04E00D
:1059400009F0FFF8C22003F088FC0F4C0123206807
:10595000B0F95624B0F95A14CDE90012427D12492B
:10596000124802F068FA20680123B0F95824B0F90F
:105970005C14CDE900120C49027D2E310C4802F076
:105980005AFABDE8FC810000240910004200012001
:1059900028091000300910002C091000941F100075
:1059A000BC9101201892012058980120021D01206D
:1059B000301D01203409100008B55A4D5A4E0024FC
:1059C000287880B10128FBD16B46002242F27D711C
:1059D000FAF7A4FD0098C1071ED001210846FAF786
:1059E0007CFD2C70ECE701210020FDF71CF86B46D4
:1059F000002202210120FAF791FD01210846FDF75E
:105A000012F800988007DBD542F27F710120FAF787
:105A100064FD01202870D3E701070CD5082101207F
:105A2000FAF75BFD0020FAF71AFE0620FAF717FED8
:105A3000FEF799F90DE0410712D504210120FAF78C
:105A40004CFD0020FAF70BFE0620FAF708FEFEF7E1
:105A500021FE0620FAF71EFE0020FAF71BFEAFE734
:105A6000C10606D510210120FAF737FDFEF775FFB4
:105A7000A6E7810606D520210120FAF72EFDFFF7C3
:105A80003BF99DE7C10507D54FF480710120FAF776
:105A900024FDFEF7BEFE93E7810507D54FF40071A4
:105AA0000120FAF71AFDFFF75BF989E7410606D5F1
:105AB00040210120FAF711FDFFF752FD80E7410573
:105AC00026D54FF480610120FAF707FD17480460DE
:105AD0001748076804603846FDF7CBFDB80701D5C5
